S0170000536572766F50574D5F41746D6567612E737265635C
S11300000C9434000C943E000C943E000C943E007E
S11300100C943E000C943E000C943E000C943E0064
S11300200C943E000C943E000C943E000C943E0054
S11300300C943E000C943E000C943E000C943E0044
S11300400C943E000C943E000C943E000C943E0034
S11300500C943E000C943E000C943E000C943E0024
S11300600C943E000C943E0011241FBECFEFD8E048
S1130070DEBFCDBF0E9440000C947F000C940000B2
S1130080DD24DA9400E810E00F2EF3EAEF2EF02DD1
S1130090C1E8D0E00F2EFDE1FF2EF02D0F2EF8E881
S11300A0AF2EB12CF02D67E371E0EAE8F0E04AE00E
S11300B050E027E030E0D4B8D801EC92F882D501C2
S11300C011967C936E93518340837894318320837B
S11300D080819181899778F7BFEF86E791E0B150ED
S11300E080409040E1F700C000008081918101963A
S11300F09183808380819181899770F3DCCFF89418
S1050100FFCF2B
S9030000FC
